:100000000C9450000C946F000C946F000C946F00D3
:100010000C946F000C946F000C946F000C946F00A4
:100020000C946F000C946F000C946F000C946F0094
:100030000C946F000C948C010C946F000C946F0066
:100040000C946F000C946F000C946F000C946F0074
:100050000C946F000C946F000C946F000C946F0064
:100060000C946F000C946F000C946F000C946F0054
:100070000C946F000C946F000C946F000C946F0044
:100080000C946F000C946F000C946F0036045104B4
:100090009E04B1040D052C053F058E05A005DB056A
:1000A00011241FBECFEFD0E4DEBFCDBF14E0A0E02F
:1000B000B1E0E2E9F0E100E00BBF02C007900D9271
:1000C000A834B107D9F724E0A8E4B4E001C01D9238
:1000D000A939B207E1F70E943C070C9447080C9439
:1000E0000000181619065CF008950000215031092F
:1000F000E1F74F5F5F4F8417950719F4089540E0CB
:1001000050E027E033E0F1CF149888B9139A00004B
:10011000139882E090E00E947100089581E00E94AF
:1001200084000895813120F481580E94840008954C
:1001300081550E948400089584E690E00E94710039
:1001400088E30E94840086E00E9484008FE00E9481
:10015000840081E00E9484008AE090E00E947100A7
:100160000895149A88B9139A0000139881E090E0DA
:100170000E94710008950F931F93CF93DF93182F60
:10018000EB010E948E008881882361F001E0010F5D
:10019000812F0E94920089910E94B100102F8881C6
:1001A0008111F4CFDF91CF911F910F910895CF93DB
:1001B000C82F8A3019F48DE00E94D700E0ECF0E0FF
:1001C000808185FFFDCFC093C60080E090E0CF9195
:1001D0000895009721F08130910559F05BC031E01E
:1001E00020E080915804811101C030E0832F922FCC
:1001F000089520915804222309F44FC023B133B14C
:1002000020952078422F4695232F30E02095309579
:100210002F733327242B2F3709F441C03091570413
:1002200031113DC02223D9F130915104321739F0F8
:10023000E1E5F4E04AE454E03291231327C0209131
:100240005504309156042F5F3F4F3093560420934E
:10025000550420915404293020F42F5F2093540436
:1002600011C01092540420915304293020F42F5FC0
:100270002093530407C010925304209152042F5F1F
:100280002093520421E0209357040895E417F507C2
:1002900099F6089580E090E0089580E090E0089558
:1002A0006093000170930101809302019093030118
:1002B0006093590470935A0480935B0490935C0498
:1002C00008958BE0809381008DE790E09093890002
:1002D0008093880082E080936F00109285001092D6
:1002E00084008091000190910101A0910201B091E0
:1002F00003018093590490935A04A0935B04B09334
:100300005C048FB780688FBF0895109281000895B4
:1003100081E080935D0408951F920F920FB60F92B3
:1003200011248F939F93AF93BF9380915904909121
:100330005A04A0915B04B0915C040197A109B10932
:100340008093590490935A04A0935B04B0935C0487
:10035000892B8A2B8B2B99F481E080935D0480910B
:10036000000190910101A0910201B09103018093DD
:10037000590490935A04A0935B04B0935C04BF911A
:10038000AF919F918F910F900FBE0F901F90189576
:10039000806490E092BD81BDF89A80B50895806434
:1003A00090E092BD81BD60BD84E08FBB82E08FBBD9
:1003B0008FE39FE10197F1F700C0000008950F93CC
:1003C0001F93CF93DF938C01862F880F880F880FA0
:1003D00080640E948400E801085F1F4F89910E9499
:1003E000B100C017D107D1F7DF91CF911F910F91C5
:1003F0000895EF92FF920F931F93CF93DF93CDB7A2
:10040000DEB7C055D1090FB6F894DEBF0FBECDBF21
:10041000082F28E0E2E1F1E0CE010196DC01019035
:100420000D922A95E1F728E0EAE1F1E0DE01199664
:1004300001900D922A95E1F728E0E2E2F1E0DE0179
:10044000519601900D922A95E1F728E0EAE2F1E059
:10045000DE01599601900D922A95E1F728E0E2E33A
:10046000F1E0DE01919601900D922A95E1F728E0E6
:10047000EAE3F1E0DE01999601900D922A95E1F709
:1004800028E0E2E4F1E0DE01D19601900D922A9598
:10049000E1F728E0EAE4F1E0DE01D99601900D925F
:1004A0002A95E1F723969FAF8EAF2397089625965E
:1004B0009FAF8EAF2597089627969FAF8EAF279751
:1004C000089629969FAF8EAF299708962B969FAFD7
:1004D0008EAF2B9708962D969FAF8EAF2D970896CF
:1004E0002F969FAF8EAF2F97089661969FAF8EAFD6
:1004F000619708967C0110E0612FF701819191913D
:100500007F010E94DF011F5F1830B1F7802F0E942A
:10051000920080E00E94B10081E0800F0E94920072
:1005200081E00E94B10082E0800F0E94920082E090
:100530000E94B10083E0800F0E94920083E00E943D
:10054000B10084E0800F0E94920084E00E94B1001C
:1005500085E0800F0E94920085E00E94B10086E055
:10056000800F0E94920083E00E94B10087E0800F1C
:100570000E94920086E00E94B10088E0800F0E94F5
:10058000920087E00E94B10089E0800F0E949200F3
:1005900083E00E94B100C05BDF4F0FB6F894DEBF6E
:1005A0000FBECDBFDF91CF911F910F91FF90EF90C4
:1005B0000895CF93DF93CDB7DEB761970FB6F89468
:1005C000DEBF0FBECDBF81E1E4E9F3E0DE011196AD
:1005D00001900D928A95E1F7BE016F5F7F4F81E137
:1005E0000E94BB0084E090E00E94F90180E00E943C
:1005F000920061960FB6F894DEBF0FBECDBFDF91BB
:10060000CF910895CF93DF93CDB7DEB7A1970FB603
:10061000F894DEBF0FBECDBF81E2E5EAF3E0DE0174
:10062000119601900D928A95E1F7BE016F5F7F4FA1
:1006300081E00E94BB0080E00E949200A1960FB66C
:10064000F894DEBF0FBECDBFDF91CF910895CF9359
:10065000DF93CDB7DEB7A1970FB6F894DEBF0FBE1C
:10066000CDBF81E2E6ECF3E0DE01119601900D9240
:100670008A95E1F7BE016F5F7F4F81E00E94BB006A
:1006800089E00E94920082E00E94C80180630E947B
:10069000B1008AE00E94920081E00E94C80180635C
:1006A0000E94B1008BE00E94920080E00E94C8018D
:1006B00080630E94B10080E00E949200A1960FB674
:1006C000F894DEBF0FBECDBFDF91CF910895CF93D9
:1006D000DF93CDB7DEB7A0970FB6F894DEBF0FBE9D
:1006E000CDBF80E2E7EEF3E0DE01119601900D92BE
:1006F0008A95E1F7BE016F5F7F4F81E00E94BB00EA
:1007000080E00E949200A0960FB6F894DEBF0FBE64
:10071000CDBFDF91CF910895CF93DF93CDB7DEB7F3
:10072000C054D1090FB6F894DEBF0FBECDBF80E232
:10073000E7E0F4E0DE01119601900D928A95E1F771
:1007400080E2E7E2F4E0DE01919601900D928A9555
:10075000E1F780915504909156048238910538F064
:10076000BE016F5F7F4F81E00E94BB0006C0BE01EB
:100770006F5D7F4F81E00E94BB0083E10E94920089
:1007800080915204805D0E94B10084E10E94920039
:1007900080915304805D0E94B10085E10E94920027
:1007A00080915404805D0E94B10080E00E9492001C
:1007B000C05CDF4F0FB6F894DEBF0FBECDBFDF9138
:1007C000CF910895EAE7F0E08081806E80830895FC
:1007D0008F7180937C00EAE7F0E080818064808301
:1007E00088E28A95F1F70895CF93DF9380E00E9425
:1007F000E803C8E7D0E0888199818093900481E084
:100800000E94E80388819981382F282F207F203E7D
:10081000A9F08F718F31A1F080919004982F907F73
:10082000903E81F0982F9F719F3171F0883371F461
:1008300081E0383309F480E0819509C088E007C081
:1008400081E005C084E003C082E001C08FEFDF914A
:10085000CF910895CF93DF93EC018A30910508F092
:10086000AFC1FC01EA5BFF4F0C943E0883E00E949D
:10087000C80190E090934904809348040E94D902F3
:1008800081E10E9492008EE30E94B10080E00E940C
:10089000920081E180938F0410925804C1E0D0E06F
:1008A00091C11092580402990CC080918F04893133
:1008B00041F40E948E0080E00E949200C2E0D0E0ED
:1008C00081C102990CC080918F04813141F40E9452
:1008D0008E0080E00E949200C5E0D0E073C10E94CB
:1008E000F403813099F481E10E94920080E20E9439
:1008F000B10089E10E9492008EE30E94B10080E085
:100900000E94920089E180938F045CC10E94F403ED
:10091000883009F057C189E10E94920080E20E946C
:10092000B10081E10E9492008EE30E94B10080E05C
:100930000E94920081E180938F0444C1029B42C1D6
:100940000E9402038CE10E9492008EE30E94B1009B
:1009500080E00E9492008CE180938F04C3E0D0E09D
:1009600031C102990CC080918F048C3141F40E94F6
:100970008E0080E00E949200C4E0D0E023C1029982
:100980001DC080918F048530C9F4029BFECF60E0CA
:1009900080E00E94CF0160E081E00E94CF0160E032
:1009A00082E00E94CF0160E083E00E94CF0160E01E
:1009B00084E00E94CF0180E00E9492000E94F40334
:1009C000823099F48CE10E94920080E20E94B10092
:1009D00085E00E9492008EE30E94B10080E00E94B8
:1009E000920085E080938F04EDC00E94F403843070
:1009F00009F0E8C085E00E94920080E20E94B10008
:100A00008CE10E9492008EE30E94B10080E00E947F
:100A100092008CE180938F04D5C0029BD3C01092CA
:100A200058041092560410925504109254041092D7
:100A30005304109252040E94D90281E10E94920054
:100A40008EE30E94B10080E00E94920081E18093D9
:100A50008F04C1E0D0E0B6C0029BB4C00E9427035F
:100A600081E10E9492008EE30E94B10080E00E942A
:100A7000920081E180938F04C6E0D0E0A3C0029988
:100A80000CC080918F048C3141F40E948E0080E074
:100A90000E949200C4E0D0E095C0029910C08091FD
:100AA0008F04813161F40E948E0080E00E949200E8
:100AB0001092560410925504C7E0D0E083C00E9403
:100AC000F403813099F481E10E94920080E20E9457
:100AD000B1008CE10E9492008EE30E94B10080E0A0
:100AE0000E9492008CE180938F046CC00E94F403FA
:100AF000883009F067C08CE10E94920080E20E9479
:100B0000B10081E10E9492008EE30E94B10080E07A
:100B10000E94920081E180938F0454C0029B52C0D6
:100B20000E946703EAE4F4E082E594E01192E8179A
:100B3000F907E1F781E080935804C8E0D0E042C0B3
:100B4000029905C010925804C4E0D0E03BC08091E7
:100B50005804811137C00E948E0083E00E94C801B2
:100B6000C82F84E00E94C8018C2B90E0209155048E
:100B70003091560482179307C8F46091540480E0C2
:100B80000E94CF016091530481E00E94CF016091E7
:100B9000520482E00E94CF016091560483E00E94DB
:100BA000CF016091550484E00E94CF010E948C0324
:100BB000C9E0D0E007C0029905C0C4E0D0E002C09F
:100BC000C0E0D0E0CE01DF91CF91089580E124E034
:100BD00092E01BB82BB99BB98150D9F71BB8089587
:100BE000CF93DF93EC01009719F00197C9F086C00D
:100BF00010928A0410928B0410928C0410928D042F
:100C000080915804882309F47BC0EAE4F4E082E58B
:100C100094E011928E179F07E1F7C1E0D0E070C019
:100C200080915804811105C00E94E605C0E0D0E023
:100C300067C040918A0450918B0460918C0470913C
:100C40008D04DB01CA010196A11DB11D80938A04A8
:100C500090938B04A0938C04B0938D04EAE4F4E0A9
:100C600086818783E0E5F4E02AE434E028C0FA01D5
:100C7000E65AFE4F808180934A04109257048CE01C
:100C80000E94920080915204805D0E94B1008DE02C
:100C90000E94920080915304805D0E94B1008EE01A
:100CA0000E94920080915404805D0E94B100809166
:100CB0005504909156048338910568F006C08291DE
:100CC0008183E217F307D9F7D2CF8FE00E94920019
:100CD00081E20E94B10080E00E94920080918A042B
:100CE00090918B04A0918C04B0918D048A33924032
:100CF000A105B10528F01092580402C0C0E0D0E070
:100D0000CE01DF91CF91089540E050E090E062E0A5
:100D10009C01042E02C0359527950A94E2F72170B4
:100D20002BB924602BB96BB91BB84F5F5F4F4830AC
:100D3000510571F70895EF92FF921F93CF93DF93C0
:100D4000EC01009719F0019769F030C00E94E605A8
:100D500091E080E020915804211101C090E0C92F5A
:100D6000D82F29C080915804882319F10E94E605E4
:100D700010918E04E12EF12C80E890E0012E02C04B
:100D8000959587950A94E2F780950E948406F7016D
:100D9000E65BFB4F80810E9484061F5F183018F4C9
:100DA00010938E0408C010928E0405C0C0E0D0E0FD
:100DB00002C0C0E0D0E0CE01DF91CF911F91FF9043
:100DC000EF900895EF92FF920F931F93CF93DF93CD
:100DD0008C01C0E0D0E06894EE24E7F8F12CC70164
:100DE0000C2E02C0959587950A94E2F780950E9493
:100DF0008406F80181918F010E94840687EE93E0BA
:100E00000197F1F700C000002196C830D10539F7ED
:100E1000DF91CF911F910F91FF90EF9008950F9365
:100E20001F93CF93DF93B62FA72FF82FE92F022F11
:100E3000132FD42FC52F04C0062F172FD82FC92F3B
:100E40006B2F7A2F8F2F9E2F202F312F4D2F5C2F1E
:100E50000E941C08B02FA12FFD2FEC2F61157105EA
:100E60008105910549F7602F712F8D2F9C2FDF9100
:100E7000CF911F910F910895CF93DF93CDB7DEB738
:100E800028970FB6F894DEBF0FBECDBF88E181B9B9
:100E900087EE82B914B88FEF85B987B918B88AB9C7
:100EA0001BB80E949C000E94E20388E0E2E5F1E0AA
:100EB000DE01119601900D928A95E1F7EFE7F4E0DB
:100EC00010828EE190E0A0E0B0E081839283A38362
:100ED000B48385839683A783B0878AE294E0928760
:100EE0008187E4E7F4E0108282E090E0A0E0B0E0E7
:100EF00081839283A383B48385839683A783B087FA
:100F00008BE996E092878187E9E6F4E0108282E33C
:100F100090E0A0E0B0E081839283A383B4838583D3
:100F20009683A783B08780EF95E092878187EEE56F
:100F3000F4E010828AE090E0A0E0B0E08183928348
:100F4000A383B48385839683A783B08789EE90E0DB
:100F5000928781878E010D5F1F4F7E0189E0E80E29
:100F6000F11C0F2EFEE18F2E912CA12CB12CF02D17
:100F7000D801ED91FD918D01582D492D3A2D2B2D44
:100F800081809280A380B48002C04B015C01652FF8
:100F9000742F832F922FA50194010E941C08582DB5
:100FA000492D3A2D2B2D611571058105910569F7A4
:100FB0000E151F05E9F6C501B4010E9450010E94FB
:100FC0006101FE0131966F01D6010D911D916D01F8
:100FD000F801458156816781708581819281A38165
:100FE000B481481759076A077B0779F48081018427
:100FF000F285E02D082E000C990B0995D8018C93F1
:10100000F8011582168217821086F8018581968173
:10101000A781B085880D991DAA1DBB1D8583968368
:10102000A783B087CE14DF0479F680915D0488230E
:10103000E1F310925D04C5CFA1E21A2EAA1BBB1BDF
:10104000FD010DC0AA1FBB1FEE1FFF1FA217B30794
:10105000E407F50720F0A21BB30BE40BF50B661FAA
:10106000771F881F991F1A9469F76095709580956E
:1010700090959B01AC01BD01CF010895EE0FFF1FBC
:101080000024001C0BBE0790F691E02D0994F89403
:02109000FFCF90
:10109200010000000000000200000000D700000074
:1010A20000001818181E1F1B1B160000000E1F1B25
:1010B20018180000000E1B1F180E0000000E1F1B48
:1010C2001B0D0303030F1F1B1B0D000000111B1F31
:1010D2001B1B0000001C1E1B1B1B00000C001C0C19
:1010E2000C1F7F04740469045E0400000000000009
:1010F2000000000041000400100001004400100044
:101102000100040050000200080020004200080014
:1011120020000200480010000100040050000100FD
:1011220004001000420008002000040048002000D3
:1011320004000200410004002000010044002000DD
:1011420001001000420001000800040042001000EB
:1011520004000200410020000800040050000200C8
:10116200200008004100040010000200600010008E
:1011720008000400420008002100040041000400AD
:1011820003000800440002001100040042001000A5
:101192004100020044002000030008006000020039
:1011A2000500100042000800110004006000100059
:1011B200090004004200080021000200480010005B
:1011C2000500200044000200110004004800020053
:1011D2000500020050000400210008004200100037
:1011E200050002006000080005000200500008002F
:1011F20045000200110044000200180041000400F2
:101202002200480011000C002200080011004800D2
:1012120001000A00410024001100480001000600FC
:1012220041000200110048002200140041000400A5
:101232000A000400110048000200140041000800E6
:101242002200140041001400220008004100240082
:10125200020008004100240002004800210014009E
:101262000A00440001001400420008002200480065
:1012720011000C0042000800210004001200480086
:101282000200180041000400220048001200480039
:1012920002001800410004002200480011000C0066
:1012A200220008001100440001000C004200280046
:1012B2001100440001000C00420008001200480026
:1012C2002200180041000400090004001200480036
:1012D200010014004200080021001400420018001E
:1012E20021000400420028000100440021001400F3
:1012F20009004400020018004100040022004800D6
:1013020011000C002200040051000800000000003F
:1013120000000000000000000000000000000000CB
:101322000000000020506C6179202020204F707452
:10133200696F6E730020202020205265736574202F
:1013420053636F726520202020202020202020203F
:10135200204261636B005265636F72643A20202001
:1013620020202020202020506C6179202020202065
:1013720020204261636B004E6F746573204869746C
:101382003A202020202020486974203133302074F4
:101392006F2077696E210020202020596F75205719
:1013A200696E21202020202020202020206E6F74B2
:1013B20065732068697400202020596F75204C6F76
:1013C20073652E2E2E20202020202020206E6F7468
:0813D2006573206869740000D6
:00000001FF
